:020000040800F2
:10000000F0E40020E901000865540008F54A000802
:1000100039540008610E0008157F00080000000038
:100020000000000000000000000000004501000882
:10003000091D000800000000890100087977000808
:10004000030200080302000803020008030200087C
:1000500003020008030200080B1D00080302000849
:10006000030200080302000803020008030200085C
:10007000030200080302000803020008030200084C
:10008000030200080302000803020008030200083C
:10009000030200080302000803020008030200082C
:1000A000030200080302000803020008030200081C
:1000B000030200080302000803020008030200080C
:1000C00003020008030200080302000803020008FC
:1000D00003020008397D0008497D0008597D0008A9
:1000E00003020008030200080302000803020008DC
:1000F00079780008030200080302000803020008E0
:1001000003020008030200080302000803020008BB
:1001100003020008030200086978000803020008CF
:10012000030200080302000803020008030200089B
:10013000DFF80CD000F068FC004800473189000867
:10014000F0E40020204B19680868B0E8F00F80F355
:100150000988BFF36F8F4FF0000080F311884EF0D5
:100160000D0E70470000000006480068006880F32C
:10017000088862B661B6BFF34F8FBFF36F8F00DFA1
:1001800000BF00BF08ED00E0EFF30980BFF36F8F01
:100190000D4B1A6820E9F00F106008B54FF05000C1
:1001A00080F311880FF0C8FE4FF0000080F3118833
:1001B000BDE8084019680868B0E8F00F80F30988C6
:1001C000BFF36F8F704700BFAC050020EFF31180C5
:1001D0004FF0500181F31188704780F31188704708
:1001E000EFF3058070470000064880470648004747
:1001F000FEE7FEE7FEE7FEE7FEE7FEE7FEE7FEE7D7
:10020000FEE7FEE71178000831010008202A04DB30
:10021000203A21FA02F00021704721FA02F3D0407F
:10022000C2F12002914008431946704740EA010399
:100230009B0703D009E008C9121F08C0042AFAD29C
:1002400003E011F8013B00F8013B521EF9D2704760
:10025000D2B201E000F8012B491EFBD27047002208
:10026000F6E710B513460A4604461946FFF7F0FFB5
:10027000204610BD421E12F8013F002BFBD111F8A1
:10028000013B02F8013B002BF9D17047421C10F8EA
:10029000011B0029FBD1801A704780EA010210B5CA
:1002A00002F00043400022D04A001FD0010E01EBB3
:1002B0001261C0F35600C2F3560240F4000042F44B
:1002C0000002A0FB022000047F39140400D0401C6F
:1002D00050EA124001D44000491EC2B20C0604EBA1
:1002E000D010401C4008802A02D003E0002010BD3E
:1002F00020F00100002900DA0020184310BD30B4BE
:1003000080EA010202F0004530F0004221F0004096
:1003100013D090B1C30DD40DC2F31601C0F3160073
:10032000E41A41F4000140F400027D34914201D30B
:10033000641C00E04900002C02DA30BC0020704749
:100340004FF400000023914201D3891A034340086F
:100350004FEA4101F7D151B1914202D14FF0004132
:1003600005E002D24FF0010101E06FF0010103EB63
:10037000C450284430BC00F083BA2DE9FE4F8046BB
:1003800081EA0300C00F0C46009021F0004123F0E9
:100390000045B8EB0200A94105D2404621469046EF
:1003A0001C460B46024623F00040104347D0270D61
:1003B000C7F30A00C3F30A510290401A0190402883
:1003C0006BDAC3F3130040F4801B0098924620B10F
:1003D0000023D2EB030A63EB0B0B01985946C0F1E3
:1003E0004002504600F02BFA06460D46504659464C
:1003F000019A00F033FA10EB08006141002487EA0B
:10040000115284EAE7731A4340D0009A62B3019A0A
:10041000012A4FEA075215DC001B61EB02014FF085
:10042000004202EA0752CDE90042001C41F580116A
:1004300032462B4600F06AFA03B0BDE8F08F404622
:100440002146F9E7001B61EB0201001C41F5801316
:1004500000185B412018A2F5001747EB030140EAA2
:10046000D570B6196D4111E06D084FEA360645EAC0
:10047000C0754FEA0752001B61EB0201001C41F5F9
:10048000801149084FEA30000019514132462B468D
:1004900003B0BDE8F04F00F02ABA009801224000F6
:1004A0000023D0EB020263EBE073009821464FEA91
:1004B000E074B8EB000061EB0401E9E783F000436E
:1004C0005BE781F0004158E72DE9FE4F81EA030424
:1004D00004F0004421F0004100944FF0000B23F0A1
:1004E000004350EA01045ED052EA03045BD0C3F338
:1004F0000A54C1F30A552C44A4F2F3340194A0FB2E
:100500000254C1F3130141F48011C3F3130343F404
:10051000801301FB024400FB034E840A970A44EA5D
:10052000815447EA8357A4FB076802958D0A05FBAF
:1005300007854FEA932C04FB0C542705029D4FEAD4
:10054000065847EA1637B5EB08056EEB070C870E21
:10055000920E47EA811742EA8312A7FB0201B6EB2B
:100560000B0164EB00042B0D43EA0C335E1844EBE3
:100570001C50DA465146E7FB0201C5F313044FEA6B
:100580000B3343EA14534FEA0432019C43EA060357
:10059000A4F10C040294009CCDE900B400F0B6F97B
:1005A00003B0BDE8F08F00200146F9E72DE9F04DDA
:1005B00081EA030404F0004B21F0004514464FF09B
:1005C000000A23F0004150EA050220D054EA01025B
:1005D0001DD0C5F30A570246C5F31303C1F3130038
:1005E000C1F30A5640F4801543F48013A7EB0608C4
:1005F000101BD64608F2FD3873EB050002D308F154
:10060000010801E092185B41B8F1000F03DA002005
:100610000146BDE8F08D00204FF480110646844667
:100620000EE0171B73EB050705D3121B63EB0503E5
:1006300006434CEA010C49084FEA300092185B412E
:1006400050EA0107EDD152EA030012D082EA040019
:1006500083EA0501084305D0101BAB4106D20122F5
:10066000002306E000224FF0004302E06FF0010299
:1006700053101AEB06004CEB085110EB0A0041EB4B
:100680000B01BDE8F04D00F032B99623002211466F
:1006900000F0FFB80EB5C10F80EAE0700844CA0749
:1006A000002140F233438DE80E000A460B4600F06D
:1006B0002DF903B000BD0EB540F233410291002187
:1006C000CDE900110A460B4600F020F903B000BD49
:1006D00020F00040C10DC0F3160040F400007F2957
:1006E00001DA00207047962903DCC1F19601C84069
:1006F0007047963988407047C1F30A5210B5C1F36C
:10070000130140F2FF3341F480119A4201DA0020D4
:1007100010BD40F233439A42A2F2334203DC52420C
:10072000FFF774FD10BD904010BD00F0004230F0A6
:1007300000400AD0C10D01F56071C0F3160042EA15
:100740000151C2084007114370470020014670471D
:1007500001F0004330B421F0004150EA010206D01C
:100760000A0DA2F56072C1F31301002A02DC30BC4D
:1007700000207047440F44EAC104C100E01830BCB7
:1007800000EBC25000F07CB8002801DBC0F1004053
:10079000002901DBC1F1004181427047002801DBE3
:1007A000C0F10040002901DBC1F1004188427047DF
:1007B00030B50B46014600202022012409E021FA31
:1007C00002F59D4205D303FA02F5491B04FA02F52E
:1007D0002844151EA2F10102F1DC30BD2DE9F05FC5
:1007E0000546002092469B468846064681464024A0
:1007F0001BE02846414647462246FFF707FD534681
:100800005A46C01A914110D311461846224600F0AC
:1008100016F82D1A67EB01084F46224601200021E9
:1008200000F00DF817EB00094E41201EA4F1010461
:10083000DFDC484631462A464346BDE8F09F202A81
:1008400004DB203A00FA02F1002070479140C2F127
:10085000200320FA03F3194390407047202A06DB57
:10086000CB17203A41FA02F043EAE07306E041FA7E
:1008700002F3D040C2F1200291400843194670476C
:100880000029A8BF7047401C490008BF20F00100A4
:10089000704710B4B0FA80FC00FA0CF050EA010482
:1008A00004BF10BC704749B1CCF1200421FA04F414
:1008B00011FA0CF118BF012121430843A3EB0C01ED
:1008C000CB1D4FEA00614FEA102042BF002010BC50
:1008D000704700EBC35010440029A4BF10BC704700
:1008E000401C490008BF20F0010010BC704710B543
:1008F000141E73F1000408DA401C41F10001921843
:100900005B411A4301D120F0010010BD2DE9F04DEB
:1009100092469B4611B1B1FA81F202E0B0FA80F240
:1009200020329046FFF78BFF04460F4640EA0A004C
:1009300041EA0B0153465A46084313D0114653EA85
:10094000010019D0C8F140025046FFF75FFC054690
:100950000E46504659464246FFF771FF084305D000
:10096000012004E020463946BDE8F08D0020054313
:1009700046EAE0762C4337430A986305E40AA0EB85
:1009800008000022FD0A44EA47540A3002D500203C
:100990000146E9E7010510196941DDE9084500193B
:1009A0006941BDE8F04DA2E7C1F30A52C1F313015A
:1009B00040F2FF3341F480119A4202DA00200146EE
:1009C000704740F233439A42A2F2334202DC524271
:1009D000FFF71CBCFFF733BF30B5041E71F10004F4
:1009E00004DB4FF00044404264EB0101141E73F13C
:1009F000000405DB1C464FF00043524263EB040346
:100A0000994208BF904230BD064C074D06E0E068B1
:100A100040F0010394E8070098471034AC42F6D345
:100A2000FFF78AFB0C1101082C11010870B58C1816
:100A300010F8015B15F0070301D110F8013B2A11F2
:100A400006D110F8012B03E010F8016B01F8016BDF
:100A50005B1EF9D12B0705D40023521E0DD401F8DB
:100A6000013BFAE710F8013BCB1A921C03E013F8A4
:100A7000015B01F8015B521EF9D5A142D8D30020D9
:100A800070BD70B504460025204605F0FEF82046EE
:100A900004F00CFD052005F08DF905F0F1F8054690
:100AA00004F0F2FC284670BD70B504460125B4F58B
:100AB000803F01D3002070BDB4F5004F03D3A4F5EF
:100AC0000044022500E00125284600F017F82846DA
:100AD00005F0DBF8284604F0E9FC032005F06AF98C
:100AE000C4F3072005F066F9E0B205F063F905F0FC
:100AF000C7F8064604F0C8FC3046DCE710B50446EB
:100B000000BF2046FFF7BDFF00F001000028F8D12C
:100B100010BD2DE9F04105460C4601263704BC42C4
:100B200001D3BDE8F081B4F5004F03D3A4F5004430
:100B3000022600E001263046FFF7E0FF304605F0D0
:100B4000A4F8304604F0B2FC022005F033F9C4F3F7
:100B5000072005F02FF9E0B205F02CF9284605F042
:100B600029F904F091FC00BFDBE70000F0B5C1B04B
:100B70004FF4807101A8FFF772FB0026002718A42C
:100B80001AA501AA2946204600F048F80646012E7B
:100B90001CD19DF80B002C2804D19DF80A00303898
:100BA000C7B20AE09DF80B0030389DF80A103039C2
:100BB00001EB810100EB4100C7B20E490F700846FE
:100BC00002780DA10F4807F0CFF806E0FF20094991
:100BD00008700DA10B4807F0C7F841B0F0BD000048
:100BE00041542B4353510D0A000000004F4B0D0A96
:100BF000000000008D04002041542B4353513D253B
:100C0000640D0A008408002041542B43535120698D
:100C100073204552524F5221210D0A002DE9F04117
:100C2000C2B006460F46904600254FF4807102A8D8
:100C3000FFF715FB0024642003233A463146009059
:100C40000E4808F02FFE0546012D12D102A800F033
:100C500017F80546012D0CD100BF05E002A8005D84
:100C600008F80400601C84B202A8005D08B1FF2CE3
:100C7000F4DD284642B0BDE8F08100000408002001
:100C800070B5054624480388002100220026002470
:100C9000082B03DA0088F83083B203E01E4800888E
:100CA000083883B21946002216E01C48465C0A2E1A
:100CB00001D1012406E00D2E03D1012C01D1022423
:100CC00000E00024022C00D108E009B9FF2101E076
:100CD000481E81B2501C82B2FF2AE6DD00BF022C02
:100CE00017D1881C81B2FF2902DDA1F5807081B285
:100CF00000220AE00948405CA854501C82B2481CFB
:100D000081B2B1F5807F00D100219942F2D101205A
:100D100070BD0020FCE700002E01002088090020A3
:100D200010B53648007805280CDA344800780328D6
:100D300008DB0DF063FD3148027831A1344807F03B
:100D400013F85AE02D48007805281CDB2B48007862
:100D50000A2818DA4FF400602E49086040F6B830CF
:100D60000EF070F84FF400602A49091D08606420F5
:100D70000EF068F80DF042FD2048027826A12448C4
:100D800006F0F2FF39E01D4800780A2829DB1B48ED
:100D900000780F2825DA4FF480501E49091D08609D
:100DA000401008608020214948614FF47A700EF0AD
:100DB00049F880201D49086100011649086040F685
:100DC000B8300EF03FF84FF400601249091D08607A
:100DD0000DF014FD0948027815A10D4806F0C4FF76
:100DE0000BE0064800780F2807DB0448027816A1BC
:100DF000074806F0B9FF04F0B9FB10BD9C030020C2
:100E00004D33355F726573742D25640A0000000050
:100E100084080020100801404D33355F5057525F61
:100E2000434F4E54524F4C2D25640A000010014090
:100E30004D33355F505752454E5F434F4E54524FDE
:100E40004C25640A000000004D33355F5741544380
:100E500048444F535F4F46462D25640A000000006A
:100E600002A007F06DF804F061FB00000A2A2A2AAC
:100E70002A2A4275734661756C745F48616E646CB2
:100E800065722A2A2A2A2A0A0000000010B500F0FA
:100E90000FFA3A2000F032FA10BD10B500F008FA4F
:100EA0003B2000F02BFA10BD10B53B2000F093F86A
:100EB00000F07F0010BD000008B500F04DF90020E3
:100EC000009011E01D4A9DF8003002EB430251787A
:100ED0001A4A9DF8003012F8130000F031FA9DF81C
:100EE0000000401CC0B200909DF800002F28E9DBF4
:100EF00003211348007800F0BFF91248008800F081
:100F0000DCF97221132000F01BFA08220E493E2062
:100F100000F0FEF9302000F05EF800909DF800101F
:100F20000AA007F00DF8312000F055F800909DF868
:100F300000100AA007F004F808BD0000140F010813
:100F4000680400206A0400206D04002050415254BF
:100F50004E554D3D5B2558485D2020005645525367
:100F6000494F4E3D5B2558485D20200A0000000097
:100F70002DE9F04105460E46174600F0F9F945F017
:100F8000C00004F065FE00240FE04FF0000803E00D
:100F900008F1010000F0FF08B8F1140FF8DBFF20A2
:100FA00004F056FE3055601CC4B2BC42EDDB00F0CC
:100FB000D5F9BDE8F08170B5044600F0D9F944F0E8
:100FC000800004F045FEFF2004F042FE054600F0DC
:100FD000C5F9284670BD70B5044600F0C9F944F063
:100FE000C00004F035FEFF2004F032FE054600F09C
:100FF000B5F9284670BD000070B50646FFF754FFEE
:1010000000285AD03F20FFF7D6FF04460CB13C2CF5
:1010100007DD21462BA006F093FFFFF737FF0020E6
:1010200070BD224631463F20FFF7A2FF02222F4922
:101030003F20FFF79DFFFFF729FF2C48407800F085
:101040008000D8B1002529480578802D07DBA5F55B
:10105000807000EBD0714910A1F14B0505E02846E6
:1010600005EBD0714910A1F14B0515F1280F03DCF8
:1010700029461FA006F064FF2046D1E700251B4843
:101080000578802D07DBA5F5807000EBD071491045
:10109000A1F14B0505E0284605EBD0714910A1F1FF
:1010A0004B0518A006F04CFF10484278234629460D
:1010B00019A006F045FF0020B2E720A006F040FF8F
:1010C0000020ADE743433131303120676574206C37
:1010D000656E677468205B25645D206461746121BE
:1010E000216572726F720D0A000000007904002001
:1010F0002A2A2A20525353493D5B25645D202A2A1F
:101100002A0A0000434331313031204352432065E5
:1011100072726F720D0A0000525353493D5B256491
:101120005D2D2D4352433D5B2558485D2D6C656E0A
:101130006774683D5B25645D0D0A000043433131EF
:1011400030312067657420636E74203020646174D0
:101150006121210D0A00000010B500F0FFF83220D7
:1011600000F07EFE00F004F9322000F079FE00F07D
:10117000F5F8002401E0601CC4B2642CFBDB3020D5
:1011800000F0BCF810BD00002DE9F04106460D4608
:10119000174698460024062001F02AFA00BF07E00F
:1011A00064200DF04FFE641C642C01D3BDE8F08177
:1011B00008F024FE0128F3D00FB94FF00008FFF724
:1011C0006CFE0720FFF7F7FE20F0030048B1681C13
:1011D000C1B23F2000F0B4F841463F2000F0B0F823
:1011E00003E029463F2000F0ABF82A4631463F2075
:1011F00000F08EF8002000F06CF8002404E0641C7D
:101200001A48844200D305E00121194801F028F969
:101210000128F4D100BF002404E0641C1348844278
:1012200000D305E00121124801F01AF90128F4D099
:1012300000BFFFF732FE002404E0641CB4F5802FE9
:1012400000D304E03520FFF7C6FE0128F5D100BF2A
:10125000012000F03EF864200DF0F4FD0120054966
:101260000860062001F0D2F900BF9FE7FFFF0300EE
:10127000000C01401404014070B506460C460720DE
:10128000FFF799FE20F003053146092000F058F8D9
:101290006CB1012C02D145F0010508E0022C02D10D
:1012A00045F0020503E0032C01D145F0030570BDB4
:1012B00010B5362000F022F810BD10B50446C4F376
:1012C0000721042000F03CF8E1B2052000F038F8D6
:1012D00010BD10B504463CB90621022000F030F8DC
:1012E000352000F00BF808E0012C06D10621022081
:1012F00000F026F8342000F001F810BD10B50446C7
:1013000000F036F8204604F0A3FC00F027F810BDEA
:101310002DE9F04105460E46174600F029F845F044
:10132000400004F095FC002404E0305D04F090FCE3
:10133000601CC4B2BC42F8DB00F010F8BDE8F081DC
:1013400070B505460C4600F013F8284604F080FC02
:10135000204604F07DFC00F001F870BD10B50122BC
:10136000D103024801F084F810BD000000080140DC
:1013700010B500224FF40041054801F079F800BF94
:101380004FF40041024801F06BF80028F8D110BD7D
:10139000000801402DE9F04F91B0FE480088401C44
:1013A000FC49088008460188052091FBF0F200FB0B
:1013B000121060B9F848007820B94FF48050F7490E
:1013C000086004E04FF48050F449091D0860F148BA
:1013D00000880D2190FBF1F201FB1200002878D16A
:1013E000EC480088002874D0ED4800880028F6D129
:1013F000EC4800880028F2D1EB4890F869000128F9
:1014000004D0E94890F86A00012809D1E74890F82B
:101410001D0F012804D1E54890F81C0F012827D0A2
:10142000E14890F8D400012804D0DF4890F8D500B6
:10143000012809D1DE4890F81D0F012804D1DC48AD
:1014400090F81C0F012813D0D74890F83F010128CD
:1014500004D0D54890F84001012864D1D54890F8CF
:101460001D0F01285FD1D34890F81C0F01285AD1D5
:10147000CC480088B0F5A04F04DBCA480088B0F51E
:10148000A84F10DDC7480088502803DBC5480088F6
:10149000542808DDC3480088022804D0C1480088C9
:1014A000B0F5007F02D111B0BDE8F08FB9480188D6
:1014B000C1A006F045FDBC4890F86900012804D0A1
:1014C000B94890F86A00012804D10020C649087084
:1014D0001FE028E0B44890F8D400012804D0B248B6
:1014E00090F8D500012803D10120BF49087010E011
:1014F000AD4890F83F01012804D0AB4890F8400176
:10150000012803D10220B849087002E06320B649DF
:101510000870B5480178B5A006F012FD4FF41141EE
:10152000B9480CF049FA9B48008840F2691190FBD9
:10153000F1F201FB120090B99648008878B1994801
:10154000008860B99648008848B992480188AFA0E1
:1015500006F0F6FC4FF48241AB480CF02DFA8D48B2
:1015600000883C2190FBF1F201FB120020B9894870
:10157000008808B10BF070FBAE480078D8B9AE48CF
:101580000078012817D1834800880D2190FBF1F2E3
:1015900001FB120078B98348008860B90120A7498F
:1015A00008704FF4614198480CF006FA79480188B8
:1015B000A3A006F0C5FCAA480078012815D17848F8
:1015C000008890B99D48007878B97648008860B95D
:1015D00001209A4908704FF431418B480CF0ECF926
:1015E0006C4801889FA006F0ABFC6A4800883C214B
:1015F00090FBF1F201FB120020B96648008808B1A7
:101600000BF02AFB6348008840F2412190FBF1F285
:1016100001FB120020B95F48008808B10CF072FB92
:101620005C49088800EBD0714910A0EB4101C9B9B1
:1016300058490988B1B19748008897490988884274
:1016400005D096480078401C9449087002E00020BC
:1016500092490870914800780A2803DD8D48008877
:101660008D4908804B4800882D2190FBF1F201FB49
:10167000120000287ED14B4800880028FAD1484843
:1016800000880028F6D1142285A10BA8FEF7CEFD14
:1016900014200A904FF0000A0BA9864806F064FB5C
:1016A0004FF4FA600DF0CEFB00BF0AE00A985044F8
:1016B0008149085C814901F80A000AF1010000F043
:1016C000FF0ABAF1080FF1DB082000237C4A194613
:1016D00000907A4808F0B8F978484078794908804D
:1016E00076480078097800EB012076490880734835
:1016F000C0787549088071488078097800EB01202E
:1017000081B2714801806F480088FEF7D4FF064619
:101710004FF066326D4BFEF7D7FE0446FFF718F820
:1017200081464FF08B41FEF7EAFD80466849FEF79F
:10173000B4FD6849086064480088FEF7BCFF0646AF
:101740004FF06632614BFEF7BFFE0446FFF700F82C
:1017500081464FF08B41FEF7D2FD80465C49FEF793
:101760009CFD5D490860554840795C4908805348B4
:10177000007900E0CFE1097800EB012057490880AB
:101780004E48C079564908804C488079097800EB6A
:101790000120A7E0080500209C030020100C014058
:1017A0005005002054050020CE4F0020105100208D
:1017B0002E6000204C6F00200A40403D475052539D
:1017C00020414C61726D2074696D65207374617283
:1017D000743D3D3D206D795F6F735F636F756E740F
:1017E000313D25640A0000005E0500204750525339
:1017F00020414C61726D207265706F727420696E49
:101800006465783D25640A00E00400200A3D3D3D02
:101810003D4750525320526164696F2050573D3DFF
:10182000206D795F6F735F636F756E74313D2564F2
:101830000D0A00008C040020890400200B05002004
:101840003D3D3D3D475052532054435020736572F7
:101850007665722053746172743D25640D0A000030
:101860000E0100200A0A3D3D3D3D526573746172D0
:10187000742047505253204359432074696D653D8D
:101880003D6D795F6F735F636F756E74313D256475
:101890000D0A00007C0400207E0400200A050020C0
:1018A000680B0B68F301006401060100000014746A
:1018B0001600000044080020880A00208E03002043
:1018C000FA030020B6040020B804002066660A402F
:1018D00000003041EC030020F0030020BA04002097
:1018E000BC040020C5490880C5480088FEF7E3FE17
:1018F00006464FF06632C34BFEF7E6FD0446FEF7A0
:1019000027FF4FF08B410990FEF7F9FC8346BE4953
:10191000FEF7C3FC8146BD49FEF7BFFC8046FEF7DB
:10192000D7FEB7490880BA480088FEF7C4FE0646CD
:101930004FF06632B34BFEF7C7FD0446FEF708FFD3
:1019400083464FF08B41FEF7DAFCAF490990FEF772
:10195000A4FC8146AD49FEF7A0FC8046FEF7B8FE28
:10196000AB490880AB480088FEF78FFE4FF08F41EF
:101970000790FEF7C4FC8346FEF7D7FE0022A64B75
:10198000CDE90801FEF7A0FD06460022A34BFEF7B5
:1019900095FD80460022A24BFEF796FD0446FEF719
:1019A000ABFE9C49088095480088FEF76EFE4FF01C
:1019B0008F410990FEF7A3FC8346FEF7B6FE8046F2
:1019C0000022984BFEF780FD06460022944BFEF75E
:1019D0007BFD0446FEF790FE884908808848007821
:1019E000914908708648008800124870884800783D
:1019F0008870874800880012C8708648007808718F
:101A0000844800880112884841717C4800788649E2
:101A100088717A4800880012C87108200023834A20
:101A200019460090804808F00FF881A1824807F01D
:101A300017FF00208149088070480088FEF73BFEB0
:101A400006460022764BFEF7B1FD04460D4671486E
:101A50000088FEF730FE06460022714BFEF7A6FD19
:101A6000804689466A480088FEF725FE0646002221
:101A70006B4BFEF79BFDCDE9080161480088FEF73E
:101A80001AFE06460022664BFEF790FDCDE902895C
:101A9000CDE90445CDE90601DDE90801CDE9000104
:101AA00067A0DDE9062306F04BFA74480168744824
:101AB0000068FEF773FE0ED8724971480068FEF7A1
:101AC00063FE08D870480088704908807048008814
:101AD000704908801EE07048016869480068FEF798
:101AE0005DFE0FD86548016865480068FEF74CFE4A
:101AF00008D26A48008865490880694800886549B5
:101B0000088007E0674800886049088066480088C8
:101B10006049088018E065480088392190FBF1F29F
:101B200001FB120080B9142261490BA8FEF77EFB6D
:101B30000BA9414806F018F94FF4FA600DF082F94C
:101B400000203E49088000BF58480088072190FBCC
:101B5000F1F201FB1200D8BB56480088C0BB5648C2
:101B60000088A8BB53480088B0F5A04F04DB51485B
:101B70000088B0F5A84F10DD4E480088502803DBE0
:101B80004C480088542808DD4A480088022804D0C0
:101B900048480088B0F5007F00D184E4002247491E
:101BA000474801F07FFD00224649454801F0A3FD6A
:101BB0004448807843494978424A1278CDE9002167
:101BC00002903E4883784278C1783FA006F0B8F989
:101BD00036480088452190FBF1F201FB120020B944
:101BE0003248018840A006F0ABF94648006880F40E
:101BF00000504449086000BF55E40000BC040020C8
:101C0000B604002066660A40000030410000204112
:101C1000B8040020BA04002000A064400000444042
:101C200000002440000059408E030020FA030020E9
:101C300010800100811600004408002034010020BB
:101C4000445455204C494241543D252E31662C5375
:101C5000554E6261743D252E31662C6D7974656D2B
:101C600070657261747572653D252E31662C6D79D3
:101C700073686964753D252E31660A00DC03002017
:101C8000EC03002000005041D2030020E6030020B6
:101C9000D0030020E4030020E0030020D60300204E
:101CA000D4030020DA030020D80300200805002018
:101CB0008010010854050020500500200F0100206D
:101CC00074090020130100203D3D3D5254433D2046
:101CD00025642F25642F25642025643A25643A2540
:101CE000643D3D3D3D0A00003D3D646973706C619B
:101CF00079206D795F6F735F636F756E74313D2509
:101D0000640000000C0C0140704710B5012000F089
:101D1000F9F910BD00BFFEE70021074AD16107496C
:101D2000096941F00401054A11611146096941F050
:101D30004001116170470000B88600200020024079
:101D40000021074AD1610749096941F00201054AAA
:101D5000116111464861096941F040011161704704
:101D6000B8860020002002400022054BDA61054AB7
:101D7000126942F00102034B1A61018070470000B2
:101D8000B8860020002002401748C06800F010000C
:101D900028B11648C06940F002001449C8611248D1
:101DA000C06800F0040028B11048C06940F001008C
:101DB0000E49C8610C48C06900F0010068B10B48C9
:101DC000C06940F004000949C86100BF0648C06905
:101DD00020F001000449C86100BF00BF142002497F
:101DE000C86000BF7047000000200240B886002095
:101DF00070B5044600F042FB054609E0601C38B1AE
:101E000024B100F03BFB401BA04201D9032070BD70
:101E10001248C06800F001000028EFD10F48C068E8
:101E200000F0200020B100BF20200C49C86000BF96
:101E30000A48C06800F0100048B90848C06900F0BE
:101E4000010020B90548C06800F0040018B1FFF790
:101E50009BFF0120DBE70020D9E7000000200240C3
:101E600031B5002400F00AFB044600BF00F006FB79
:101E7000001B00998842F9D338BD00002DE9F041DC
:101E800004460E460127002500BF2648007E012893
:101E900002D10220BDE8F08101202249087600BF6E
:101EA0002068022813D14CF25030FFF7A1FF90BBFD
:101EB0000120FFF731FF4CF25030FFF799FF074642
:101EC0001948006920F004001749086123E04CF22A
:101ED0005030FFF78DFFF0B94FF0FF303060A5684C
:101EE00012E02846FFF72CFF4CF25030FFF780FF3E
:101EF00007460D48006920F002000B4908610FB148
:101F0000356007E005F50065D4E9021001EBC0205B
:101F1000A842E6D800BF00BF00200249087600BFF3
:101F20003846B7E7B8860020002002400348006921
:101F300040F0800001490861002070470020024005
:101F40002DE9FE4F05468B4617469846012600248C
:101F50000020029000BF2448007E012802D1022008
:101F6000BDE8FE8F01202049087600BF4CF25030BA
:101F7000FFF73EFF064686BB012D02D101200290ED
:101F800006E0022D02D10220029001E0042002901E
:101F900000241EE02201B946C24648465146FEF7DB
:101FA00035F980B20190022000FB04B00090019945
:101FB000FFF7DAFE4CF25030FFF71AFF06460B48E7
:101FC000006920F001000949086106B104E0601CC5
:101FD000C4B202988442DDDB00BF00BF002002498A
:101FE000087600BF3046BBE7B886002000200240DC
:101FF0000748006900F0800028B10648044948609D
:102000000548486001E0012070470020FCE700001F
:102010000020024023016745AB89EFCDF8B50446A7
:10202000002600200090012C34D100270BE07F1CFB
:102030001F48874207D31FA005F082FFFEF726FF47
:1020400007F0A6FEF8BD0121244800F009FA012896
:10205000EDD0FEF729FF064621480670002E13DD5D
:102060006A4608211F4800680EF074F805462DB135
:10207000009818B14FF080501B4908601B48008839
:10208000401C1A49088004E018480088401C174981
:10209000088000BF022C09D115480088401C144953
:1020A00008800846018813A005F04AFF00BFC9E771
:1020B000FFFF3F000A2A2A2A2A2A4558495420436A
:1020C000435F4952515F524541442829203D3D20FC
:1020D00031202A2A2A2A2A2A0A000000000C01405C
:1020E000880400200005002004ED00E084040020A6
:1020F0008204002050433720494E543D25642D0A68
:102100000000000010B5044604480068204020B1DB
:10211000024804602046FFF781FF10BD140401400F
:102120002DE9F847024600240020002584460027B8
:1021300000237BE14FF0010808FA03F4D1F8008096
:1021400008EA0400A0427DD1DFF8ECA2D1F80480B7
:10215000A8EB0A09D0453AD014DCB8F1030F50D0EF
:1021600009DCB8F1000F31D0B8F1010F1CD0B8F183
:10217000020F49D120E0B8F1110F18D0B8F1120FB9
:1021800042D11EE0B9F5881F25D006DCB9F5803FA5
:1021900020D0B9F5801F37D11AE0B9F5001F18D04B
:1021A000B9F5041F30D117E0D1F80CC02DE0D1F8FB
:1021B0000C8008F1040C28E0D1F80C8008F1080C20
:1021C00023E0D1F80C8008F10C0C1EE000BF00BF2A
:1021D00000BF00BF00BF00BFD1F80880B8F1000FFA
:1021E00002D14FF0040C0BE0D1F80880B8F1010FD8
:1021F00003D14FF0080C146102E04FF0080C546159
:1022000003E04FF0000C00E000BF00BFFF2801D842
:10221000904601E002F104084646FF2802D84FEA42
:10222000830803E0A3F108084FEA88084746D6F878
:1022300000804FF00F0909FA07F928EA09080CFA9B
:1022400007F900E07AE048EA0908C6F80080D1F80A
:10225000048008F08058B8F1805F6FD100BFDFF8CC
:10226000DC81D8F8188048F00108DFF8D091C9F86F
:102270001880C846D8F8188008F00108CDF800800A
:1022800000BF00BF4FEAB9384FEA930958F8295008
:102290004FEA83784FEA18794FF00F0808FA09F8E7
:1022A00025EA0805DFF89881424502D14FF0000881
:1022B00024E0DFF89081424502D14FF001081DE093
:1022C000DFF88481424502D14FF0020816E0DFF8C2
:1022D0007C81424502D14FF003080FE0DFF87081A6
:1022E000424502D14FF0040808E0DFF8688142451A
:1022F00002D14FF0050801E04FF006084FEA83795C
:102300004FEA197908FA09F848EA0505DFF8488123
:102310004FEA930948F82950D1F8048008F480382E
:10232000B8F5803F0BD1DFF83481D8F8008048EA57
:102330000008DFF82891C9F800800AE075E0DFF8AE
:102340001C81D8F8008028EA0008DFF81091C9F84D
:102350000080D1F8048008F40038B8F5003F0ED1B1
:10236000DFF8F88008F10408D8F8008048EA00088F
:10237000DFF8E89009F10409C9F800800DE0DFF802
:10238000DC8008F10408D8F8008028EA0008DFF8AB
:10239000CC9009F10409C9F80080D1F8048008F450
:1023A0008018B8F5801F0ED1DFF8B08008F108085A
:1023B000D8F8008048EA0008DFF8A09009F1080981
:1023C000C9F800800DE0DFF8948008F10808D8F81B
:1023D000008028EA0008DFF8849009F10809C9F8AC
:1023E0000080D1F8048008F40018B8F5001F0ED161
:1023F000DFF8688008F10C08D8F8008048EA000887
:10240000DFF8589009F10C09C9F800800DE0DFF8F9
:102410004C8008F10C08D8F8008028EA0008DFF8A2
:102420003C9009F10C09C9F800805B1C102BFFF4EB
:1024300081AEBDE8F88700000000111000100240D6
:1024400000080140000C0140001001400014014050
:1024500000180140001C0140080001400004014038
:10246000024693680B400BB1012000E0002070474A
:102470000AB1016101E00B04036170470148006883
:10248000704700007805002002480068401C0149A0
:10249000086070477805002010B50848006840F0D3
:1024A000100006490860032000F0FCF8002000F04E
:1024B00007F800F049F8002010BD0000002002409D
:1024C00070B588B0044600250026002221462C2045
:1024D00000F0A9F82C2000F099F800BF1648806998
:1024E00040F40050144988610846806900F40050A7
:1024F000019000BF00BF02A903A800F0D1FB00F0CB
:102500000DFC05460D48B5FBF0F0461E0C480D4984
:10251000086040F2E7310B48C1604660002101616C
:10252000816001F0ACFD20B9064801F0E5FD08B07E
:1025300070BD0120FBE700000010024040420F0088
:1025400000340140787E002008B500BF1F48806934
:1025500040F001001D4988610846806900F00100D3
:10256000009000BF00BF032000F09CF8002211463D
:102570006FF00B0000F057F8002211466FF00A00D0
:1025800000F051F8002211466FF0090000F04BF8FE
:1025900000221146501F00F046F800221146101F7D
:1025A00000F041F800220F21901E00F03CF80022BC
:1025B0000F21501E00F037F80548406820F0E06019
:1025C00040F000700249486008BD00000010024061
:1025D0000000014000BF00F01F0201219140034AAA
:1025E000430942F8231000BF7047000080E200E07A
:1025F00000BF00F01F0201219140034A430942F845
:10260000231000BF7047000080E100E000BF00F031
:102610001F02012191404209920002F1E022C2F81A
:10262000001100BF70472DE9F05F80460D46164649
:10263000002702F05FFF074639462A46334601F07D
:102640000700C0F1070ABAF1040F02D94FF0040ADB
:1026500001E0C0F1070AD14600F1040ABAF1070F00
:1026600002D24FF0000A01E0A0F1030AD4464FF075
:10267000010A0AFA09FAAAF1010A0AEA020A0AFA9E
:102680000CFA4FF0010B0BFA0CFBABF1010B0BEA50
:10269000030B4AEA0B042146404602F033FFBDE833
:1026A000F09F000000BF00F00702064B19684FF6CC
:1026B000FF031940044B0B4343EA0221014B19600D
:1026C00000BF70470CED00E00000FA0500BF00BF3E
:1026D00000BF00BF00BFBFF34F8F00BF00BF00BFF0
:1026E0000948006800F4E06008490843001D0649F5
:1026F000086000BF00BF00BFBFF34F8F00BF00BF27
:1027000000BF00BF00BFFDE70CED00E00000FA05D0
:102710000120010291FAA1F1B1FA81F1014A42F8D6
:102720002100704700000E422DE9F04385B00646B7
:102730004EA30FCB01AC0FC450A000680090002442
:10274000A046A14600250027042E43D004DC012E1C
:1027500048D0022E70D170E0082E3FD0102E7FD1CD
:1027600047484468006800F0807068B304F4701053
:102770004FF4701191FAA1F1B1FA81F1C84001A9A9
:102780000F5C04F48030A0B13D48406800F4003094
:10279000710391FAA1F1B1FA81F1C8401DF80090DE
:1027A00004F4803040B13748B0FBF9F000FB07F586
:1027B00002E0354807FB00F53148406800F480002E
:1027C000B0F5800F01D1A84603E068000321B0FBFB
:1027D000F1F846E000F0B8FA804642E000F0B4FAC2
:1027E00080463EE02648046A04F44070B0F5807FDD
:1027F00005D104F0020010B14FF400481BE004F4CE
:102800004070B0F5007F07D11D48406A00F002001B
:1028100010B149F640480EE004F44070B0F5407F36
:1028200007D11748006800F4003010B14FF2244877
:1028300001E04FF0000814E012E000F06FFA0146EA
:102840000F48406800F440404FF4804292FAA2F2F0
:10285000B2FA82F2D040401C4000B1FBF0F800E038
:1028600000BF00BF404605B0BDE8F0830203040589
:10287000060708090A0B0C0D0E0F101001020000CC
:102880000010024000127A0000093D00F8B504462D
:1028900000260025207800F00100002877D000BF36
:1028A0005648C06940F080505449C8610846C06924
:1028B00000F08050009000BF00BF5148006840F415
:1028C00080704F490860FFF7D9FD064606E0FFF724
:1028D000D5FD801B642801D90320F8BD4848006855
:1028E00000F480700028F2D04448006A00F440757B
:1028F000002D5ED0A08800F44070A84259D03F4817
:10290000006A20F440750120010491FAA1F1B1FAA6
:1029100081F13C4A02EB8101C1F8000400204FF430
:10292000803191FAA1F1B1FA81F102EB8101C1F894
:1029300000043248056205F0010048B3FFF79EFD30
:10294000064608E0FFF79AFD801B41F28831884275
:1029500001D90320C1E74020022191FAA1F1B1FA87
:1029600081F108430121B1EB601F02D123480068C7
:1029700011E04020022191FAA1F1B1FA81F108435E
:102980000221B1EB601F04D11C48006A03E018E08B
:102990000FE01A48406A4021022292FAA2F2B2FAEB
:1029A00082F2114301F01F020121914008400028EA
:1029B000C8D01248006A20F44070616808430F498B
:1029C0000862207800F00200022807D10B48406816
:1029D00020F44040A168084308494860207800F08E
:1029E0001000102807D10548406820F48000616974
:1029F00008430249486000206FE7000000100240D1
:102A0000007000400000424270B504460D460026AA
:102A10009F48006800F00700A8420ED29C4800685A
:102A200020F0070028439A4908600846006800F033
:102A30000700A84201D0012070BD207800F00200FC
:102A4000022807D19348406820F0F000A1680843AD
:102A500090494860207800F0010000287CD0606830
:102A600001282DD12020010391FAA1F1B1FA81F1C1
:102A700008430121B1EB601F02D1864800680FE0D6
:102A80002020010391FAA1F1B1FA81F1084302215A
:102A9000B1EB601F02D17F48006A01E07D48406AC7
:102AA00020210A0392FAA2F2B2FA82F2114301F053
:102AB0001F02012191400840002860D10120BBE79E
:102AC000606802282CD12020010591FAA1F1B1FA09
:102AD00081F108430121B1EB601F02D16D4800680C
:102AE0000FE02020010591FAA1F1B1FA81F108432C
:102AF0000221B1EB601F02D16648006A01E065481F
:102B0000406A20210A0592FAA2F2B2FA82F2114337
:102B100001F01F0201219140084078BB01208BE7A2
:102B20002020022191FAA1F1B1FA81F1084301219B
:102B3000B1EB601F02D15748006810E0202002214D
:102B400091FAA1F1B1FA81F108430221B1EB601FC2
:102B500003D15048006A02E054E04E48406A202108
:102B6000022292FAA2F2B2FA82F2114301F01F029B
:102B700001219140084008B901205DE7FFE7454881
:102B8000406820F003006168084342494860FFF74D
:102B900075FC06466068012810D108E0FFF76EFC5E
:102BA000801B41F28831884201D9032044E739482B
:102BB000406800F00C000428F0D123E0606802288F
:102BC00010D108E0FFF75AFC801B41F2883188429F
:102BD00001D9032030E72F48406800F00C00082896
:102BE000F0D10FE008E0FFF749FC801B41F288318B
:102BF000884201D903201FE72648406800F00C00F6
:102C00000028F0D12248006800F00700A8420ED941
:102C10001F48006820F0070028431D490860084647
:102C2000006800F00700A84201D0012004E72078E6
:102C300000F00400042807D11648406820F4E06042
:102C4000E168084313494860207800F0080008282C
:102C500008D11048406820F46050216940EAC10062
:102C60000C49486000F070F80A49496801F0F00129
:102C7000F02292FAA2F2B2FA82F2D140064A515CF4
:102C8000C840064908600020FFF71AFC0020D3E680
:102C90000020024000100240921001088005002030
:102CA0000F2202600D4A526802F0030242600B4A92
:102CB000526802F0F0028260084A526802F4E06250
:102CC000C260064A526802F46052D2080261044AA5
:102CD000126802F007020A6070470000001002400C
:102CE0000020024001480068704700008005002075
:102CF00000B5FFF7F7FF0749496801F4E0614FF4B9
:102D0000E06292FAA2F2B2FA82F2D140024A515C37
:102D1000C84000BD00100240A210010800B5FFF736
:102D2000E1FF0749496801F460514FF4605292FA9B
:102D3000A2F2B2FA82F2D140024A515CC84000BD10
:102D400000100240A2100108F0B585B00FF28C0C03
:102D50009CE8E01001A8A0E8E01024A52D680095EB
:102D600000210024002200230020214D696801F089
:102D70000C056DB3042D02D0082D28D101E01D48AB
:102D800028E001F470154FF4701696FAA6F6B6FA1C
:102D900086F6F54001AE735D01F4803595B1144DB2
:102DA0006D6805F400354FF4003696FAA6F6B6FACB
:102DB00086F6F5401DF805400E4DB5FBF4F505FB14
:102DC00003F202E00C4D03FB05F2104602E000BFE7
:102DD000084800BF00BF05B0F0BD000002030405B5
:102DE000060708090A0B0C0D0E0F10100102000057
:102DF0000010024000127A0000093D0038B5044678
:102E00000025207800F0010000287CD0F8484068B8
:102E100000F00C0004280CD0F548406800F00C00CD
:102E2000082837D1F248406800F48030B0F5803F80
:102E300030D12020010391FAA1F1B1FA81F10843C8
:102E40000121B1EB601F02D1E94800680FE02020AA
:102E5000010391FAA1F1B1FA81F108430221B1EB2A
:102E6000601F02D1E248006A01E0E148406A202187
:102E70000A0392FAA2F2B2FA82F2114301F01F029F
:102E80000121914008400028BFD0606800283AD155
:102E9000012038BD00BF6068B0F5803F06D1D4483E
:102EA000006840F48030D249086028E0606858B972
:102EB000CF48006820F48030CD490860084600689B
:102EC00020F4802008601AE06068B0F5A02F0BD1D4
:102ED000C748006840F48020C5490860084600687B
:102EE00040F4803008600AE0C148006820F4803077
:102EF000BF4908600846006820F48020086000BFD1
:102F00006068C8B300E06FE0FFF7B8FA054606E076
:102F1000FFF7B4FA401B642801D90320B9E7202049
:102F2000010391FAA1F1B1FA81F108430121B1EB5A
:102F3000601F02D1AE4800680FE02020010391FA23
:102F4000A1F1B1FA81F108430221B1EB601F02D176
:102F5000A748006A01E0A648406A20210A0392FAC5
:102F6000A2F2B2FA82F2114301F01F020121914054
:102F700008400028CCD037E0FFE7FFF77FFA05468E
:102F800006E0FFF77BFA401B642801D9032080E7A5
:102F90002020010391FAA1F1B1FA81F10843012146
:102FA000B1EB601F02D1924800680FE020200103BE
:102FB00091FAA1F1B1FA81F108430221B1EB601F4E
:102FC00002D18B48006A01E08948406A20210A0347
:102FD00092FAA2F2B2FA82F2114301F01F02012129
:102FE000914008400028CCD1207800F0020002284F
:102FF0004ED17F48406800F00C0050B17C484068DA
:1030000000F00C00082844D17948406800F4803072
:1030100078BB2020022191FAA1F1B1FA81F1084395
:103020000121B1EB601F02D1714800680FE0202040
:10303000022191FAA1F1B1FA81F108430221B1EB29
:10304000601F02D16A48006A01E06948406A202195
:10305000022292FAA2F2B2FA82F2114301F01F02A6
:1030600001219140084028B12069012802D00120A7
:103070000FE70EE05E48006820F0F800F82292FAB0
:10308000A2F2B2FA82F2616991400843584908609D
:1030900091E02069F0B3012090FAA0F1B1FA81F13A
:1030A000544A42F82100FFF7E9F9054606E0FFF728
:1030B000E5F9401B022801D90320EAE6202002217D
:1030C00091FAA1F1B1FA81F108430121B1EB601F3E
:1030D00002D1474800680FE02020022191FAA1F1B7
:1030E000B1FA81F108430221B1EB601F02D14048DF
:1030F000006A01E03E48406A2021022292FAA2F2D0
:10310000B2FA82F2114301F01F02012191400840FE
:10311000002800E00FE0CAD03548006820F0F80031
:10312000F82292FAA2F2B2FA82F26169914008435F
:103130002F4908603FE00020012191FAA1F1B1FA86
:1031400081F12C4A42F82100FFF798F9054606E084
:10315000FFF794F9401B022801D9032099E62020AB
:10316000022191FAA1F1B1FA81F108430121B1EBF9
:10317000601F02D11E4800680FE02020022191FA52
:10318000A1F1B1FA81F108430221B1EB601F02D134
:103190001748006A01E01648406A2021022292FA8C
:1031A000A2F2B2FA82F2114301F01F020121914012
:1031B00008400028CCD1207800F0080008284BD126
:1031C000A069A8B3012191FAA1F0B0FA80F0094AF0
:1031D00002EB8000C0F88014FFF750F905460BE0C1
:1031E000FFF74CF9401B022806D9032051E60000E6
:1031F00000100240000042426020022191FAA1F139
:10320000B1FA81F108430121B1EB601F02D1F94805
:10321000006810E06020022191FAA1F1B1FA81F179
:1032200008430221B1EB601F03D1F248006A02E0BB
:1032300013E0F048406A6021022292FAA2F2B2FA48
:1032400082F2114301F01F02012191400840002841
:10325000C6D00120FEF704FE41E00020012191FAD2
:10326000A1F1B1FA81F1E44A02EB8101C1F88004D5
:10327000FFF704F9054606E0FFF700F9401B0228B6
:1032800001D9032005E66020022191FAA1F1B1FAEB
:1032900081F108430121B1EB601F02D1D5480068DC
:1032A0000FE06020022191FAA1F1B1FA81F1084307
:1032B0000221B1EB601F02D1CE48006A01E0CD4887
:1032C000406A6021022292FAA2F2B2FA82F211431B
:1032D00001F01F020121914008400028CCD1207844
:1032E00000F00400042875D100BFC248C06940F056
:1032F0008050C049C8610846C06900F08050009005
:1033000000BF00BFBD48006840F48070BB49086042
:10331000FFF7B4F8054606E0FFF7B0F8401B642855
:1033200001D90320B5E5B548006800F48070002895
:10333000F2D000BFE068012806D1AE48006A40F034
:103340000100AC49086227E0E06858B9A948006A62
:1033500020F00100A74908620846006A20F0040036
:10336000086219E0E06805280BD1A248006A40F025
:103370000400A04908620846006A40F001000862A3
:103380000AE09C48006A20F001009A490862084659
:10339000006A20F00400086200BFE068D0B3FFF7C5
:1033A0006DF8054608E0FFF769F8401B41F28831E7
:1033B000884201D903206CE54020022191FAA1F155
:1033C000B1FA81F108430121B1EB601F03D18948B3
:1033D000006810E058E04020022191FAA1F1B1FA12
:1033E00081F108430221B1EB601F02D18148006ADC
:1033F00001E08048406A4021022292FAA2F2B2FA29
:1034000082F2114301F01F0201219140084000287F
:10341000C9D039E0FFE7FFF731F8054608E0FFF7CC
:103420002DF8401B41F28831884201D9032030E554
:103430004020022191FAA1F1B1FA81F10843012162
:10344000B1EB601F02D16B4800680FE04020022101
:1034500091FAA1F1B1FA81F108430221B1EB601FA9
:1034600002D16448006A01E06248406A40210222B9
:1034700092FAA2F2B2FA82F2114301F01F02012184
:10348000914008400028CAD1E069002873D059480B
:10349000406800F00C0008286ED0E06902286CD16A
:1034A00000204FF0807191FAA1F1B1FA81F1524AF6
:1034B00042F82100FEF7E2FF054606E0FEF7DEFFD8
:1034C000401B022801D90320E3E42020010591FAE2
:1034D000A1F1B1FA81F108430121B1EB601F02D1E2
:1034E000444800680FE02020010591FAA1F1B1FAEB
:1034F00081F108430221B1EB601F02D13D48006A0F
:1035000001E03C48406A20210A0592FAA2F2B2FA90
:1035100082F2114301F01F0201219140084000286E
:10352000CCD1206AB0F5803F07D13248406820F402
:103530000030A16808432F494860D4E908010843D6
:103540002C49496821F4741108432A494860012133
:10355000080690FAA0F0B0FA80F0274A42F820104E
:10356000FEF78CFF054609E0FEF788FF401B0228A6
:1035700004D903208DE479E076E02CE020200105D9
:1035800091FAA1F1B1FA81F108430121B1EB601F79
:1035900002D1184800680FE02020010591FAA1F13E
:1035A000B1FA81F108430221B1EB601F02D1114849
:1035B000006A01E00F48406A20210A0592FAA2F24F
:1035C000B2FA82F2114301F01F020121914008403A
:1035D0000028C9D04AE000204FF0807191FAA1F193
:1035E000B1FA81F1044A42F82100FEF747FF05468F
:1035F0000DE0000000100240000042420070004058
:10360000FEF73CFF401B022801D9032041E42020A3
:10361000010591FAA1F1B1FA81F108430121B1EB61
:10362000601F02D1124800680FE02020010591FAC6
:10363000A1F1B1FA81F108430221B1EB601F02D17F
:103640000B48006A01E00A48406A20210A0592FA04
:10365000A2F2B2FA82F2114301F01F02012191405D
:1036600008400028CCD101E0012012E4002010E441
:103670000010024010B5034600220020024A02EB6F
:1036800081021468A0B210BD006C004010B5034662
:103690000020034800EB810094B2046010BD0000DC
:1036A000006C0040F8B505460C4616460020009018
:1036B00005B10CB90120F8BD00226946284600F08A
:1036C0001AF808B10120F6E7287B2070E87BE0704B
:1036D000687B6070A87BA0705EB1E07801F0FFFFAE
:1036E000E070607801F0FBFF6070A07801F0F7FFF8
:1036F000A0700020DFE72DE9F04780460C46914698
:1037000000250026AA460027B8F1000F00D014B902
:103710000120BDE8F087D8F800004068C0F38000C1
:1037200008B10120F5E7404602F0A4F805464FF441
:103730006160B5FBF0F7B5FBF0F100FB11503C21E7
:10374000B0FBF1F060704FF46160B5FBF0F100FB8D
:1037500011503C21B0FBF1F201FB1200A070182FB8
:1037600039D31820B7FBF0FAB7FBF0F100FB11706A
:103770002070404602F072F80646701C18B1AE4246
:1037800001D9761B01E04FF0FF360AEB4A00C0007A
:10379000C0EB4011C1EB0020A5EB001529464046C7
:1037A00002F0DBF808B10120B3E7701C38B12E44F9
:1037B0003146404602F0BAF840B10120A9E731464F
:1037C000404602F0B3F808B10120A2E75146404656
:1037D00001F092FF00E02770B9F1000F0BD02078C4
:1037E00001F07DFF2070607801F079FF6070A078B3
:1037F00001F075FFA07000208BE7000070B5044653
:1038000000250CB9012070BD607C20B90020207417
:10381000204600F05BF802206074204600F068F952
:1038200018B1042060740120EDE7204601F0BFFFCD
:1038300018B1042060740120E5E72068406820F09A
:10384000070021684860A06828B11F48006820F080
:1038500001001D4908601C48001F006820F46070CA
:10386000A16808431849091F08606068401C08B136
:10387000656809E00120FEF757FF05461DB90420E1
:1038800060740120BFE76D1E2068806820F00F0083
:1038900040EA1540216888602068C06865F30F0021
:1038A0002168C860204601F09FFF18B104206074B1
:1038B0000120A8E70021E17301216173A1730120B8
:1038C000607400209FE70000306C004038B504466B
:1038D0000F49206888421AD1FEF71AFF00BF0D4831
:1038E000C06940F000600B49C8610846C06900F03B
:1038F0000060009000BF00BF0120C10391FAA1F158
:10390000B1FA81F1044A02EB8101C1F8000438BD2B
:103910000028004000100240000042422DE9F0471C
:1039200004460D46904600260027B14604B115B95D
:103930000120BDE8F08700BF207C012801D10220D2
:10394000F7E70120207400BF02206074B8F1000F77
:1039500006D1E978E17369786173A978A1730BE006
:10396000E87801F0B1FEE073687801F0ADFE6073B5
:10397000A87801F0A9FEA073A27B617BE07B01F037
:1039800093FF2073207B2870204601F073FF0646CA
:103990004FF46160B6FBF0F9B9F1180F2FD9182078
:1039A000B9FBF0F000EB4000C000C0EB4011C1EBF0
:1039B0000020A6EB00163146204601F0CEFF38B1BC
:1039C0000420607400BF0020207400BF0120B0E715
:1039D000204601F043FF0746781C80B1B7420ED263
:1039E0000B4807443946204601F0A0FF38B10420B7
:1039F000607400BF0020207400BF012099E70120FF
:103A0000607400BF0020207400BF00BF91E7000079
:103A1000805101002DE9F04704460D4690460026EE
:103A2000002704B115B90120BDE8F08700BF207C54
:103A3000012801D10220F7E70120207400BF0220F5
:103A40006074B8F1000F0BD128784FF461614843DE
:103A50006978C1EB011100EB8100A978461812E0EA
:103A6000287801F031FE4FF4616100FB01F96878BC
:103A700001F02AFEC0EB001009EB8009A87801F0E4
:103A800023FE09EB00063146204601F066FF38B1FF
:103A90000420607400BF0020207400BF0120C3E731
:103AA0002068406820F0050021684860204601F049
:103AB000D5FE0746781C80B1B7420ED20B480744AA
:103AC0003946204601F032FF38B10420607400BF4F
:103AD0000020207400BF0120A6E70120607400BF11
:103AE0000020207400BF00BF9EE70000805101004D
:103AF00070B5044600250CB9012070BD20684068EF
:103B000020F0080021684860FEF7B8FC054607E091
:103B1000FEF7B4FC401BB0F57A7F01D90320ECE737
:103B20002068406800F008000028F1D00020E4E799
:103B3000014691F85100704710B504460CB90120B8
:103B400010BD94F8510010B9204600F03BF8022057
:103B500084F851002068006820F040002168086067
:103B6000D4E901010843E168084321690843616918
:103B70000843218B01F400710843E1690843216A7D
:103B80000843A16A0843216808600421A06901EA8A
:103B90001040616A0843216848602168E06A086152
:103BA0002068C06920F400602168C86100200449D1
:103BB00008706065012084F851000020C0E7000013
:103BC0007C05002010B586B004462649206888424E
:103BD00021D100BF2448806940F480502249886187
:103BE0000846806900F48050019000BF00BFA0200B
:103BF0000290022003900320059002A91B48FEF7C3
:103C00008FFA4020029000200390049002A91748E8
:103C1000FEF786FA24E016492068884220D100BFCA
:103C20001148C06940F400400F49C8610846C069A6
:103C300000F40040019000BF00BF28200290022045
:103C400003900320059002A90A48FEF769FA1020A4
:103C5000029000200390049002A90648FEF760FA43
:103C600006B010BD003001400010024000080140C5
:103C7000003C0040000C01402DE9F84304460E468C
:103C800017461D46DDF820800020009094F8510072
:103C9000012803D094F85100222876D10EB107B143
:103CA00015B90120BDE8F88300BF94F85000012841
:103CB00001D10220F6E7012084F8500000BF94F8FB
:103CC0005100012802D1322084F8510000206065A3
:103CD000A763A587E5872663A586E586A064E064DB
:103CE000A06AB0F5005F0DD100BF2068006820F425
:103CF0000050216808602068006840F40050216886
:103D0000086000BF2068006800F04000402805D02F
:103D10002068006840F0400021680860E068B0F565
:103D2000006F75D1606830B16068B0F5827F0CD1EA
:103D3000E08E012809D1206B00882168C860206BC3
:103D4000801C2063E08E401EE086E08EF0B9A06A01
:103D5000B0F5005F05D12068006840F4805021680C
:103D60000860434600220121204601F099FF08B176
:103D7000032097E72068C068A16B0880A06B801CB7
:103D8000A063E08F401EE087C7E015E131E04346C5
:103D900000220221204601F083FF08B1032081E7C1
:103DA000206B00882168C860206B801C2063E08E37
:103DB000401EE086E08E48B9A06AB0F5005F05D1EC
:103DC0002068006840F48050216808604346002263
:103DD0000121204601F064FF08B1032062E720685A
:103DE000C068A16B0880A06B801CA063E08F401EA0
:103DF000E087E08E0028CADC60680028C4D1434612
:103E000000220121204601F04BFF10B1032049E7B9
:103E10000AE02068C068A16B0880A06B801CA063CA
:103E2000E08F401EE08778E0606830B16068B0F5F0
:103E3000827F0BD1E08E012808D1216B481C2063C2
:103E400008782168C860E08E401EE086E08ED0B918
:103E5000A06AB0F5005F05D12068006840F480508A
:103E600021680860434600220121204601F018FF26
:103E700008B1032016E72068C068A16B0870E08FC6
:103E8000401EE08749E030E0434600220221204600
:103E900001F006FF08B1032004E7216B481C2063F2
:103EA00008782168C860E08E401EE086E08E48B940
:103EB000A06AB0F5005F05D12068006840F480502A
:103EC00021680860434600220121204601F0E8FEF7
:103ED00008B10320E6E62068C068C1B2A26B501C9E
:103EE000A0631170E08F401EE087E08E0028CBDCDD
:103EF000606890B9434600220121204601F0D0FEBF
:103F000008B10320CEE62068C068C1B2A26B501C85
:103F1000A0631170E08F401EE087A06AB0F5005FDB
:103F200012D1434600220121204601F0B9FE28B1FA
:103F3000606D40F0020060650320B3E62068C06851
:103F400080B20090BDF80000434601228021204647
:103F500001F0A6FE28B1606D40F0100060650320FE
:103F6000A0E6012084F85100A06AB0F5005F1DD1E1
:103F700020688068C0F30010C0B1606D40F002009E
:103F8000606500BF2068006820F400502168086068
:103F90002068006840F400502168086000BF00BF3E
:103FA000002084F8500000BF01207BE600BF002005
:103FB00084F8500000BF75E6022073E6042808D19B
:103FC0004FF0E021096941F004014FF0E022116156
:103FD00007E04FF0E021096921F004014FF0E022F1
:103FE0001161704770B504462546681EB0F1807FA8
:103FF00001D301200FE0681E4FF0E02148610F213E
:104000004FF0FF3001F07EFA00204FF0E021886190
:1040100007200861002070BD70477047024600BF4E
:1040200092F83800012801D102207047012082F85F
:10403000380000BF022082F839001068406820F084
:10404000700013685860106840680B681843136864
:1040500058601068806820F08000136898601068CD
:1040600080684B68184313689860012082F8390013
:1040700000BF002082F8380000BF00BFD5E710B5B0
:1040800004460CB9012010BD94F8390028B900206D
:1040900084F83800204600F00DF8022084F839003A
:1040A000211D206803F0F0FB012084F83900002076
:1040B000E9E7000038B504460D492068884215D16B
:1040C00000BF0C48C06940F010000A49C8610846AA
:1040D000C06900F01000009000BF00BF002207215F
:1040E0003620FEF7A0FA3620FEF790FA38BD000021
:1040F000001000400010024001460868C06840F00F
:1041000001000A68D0600868006840F001000A6891
:1041100010600020704701460868C06820F0010068
:104120000A68D06000BF0868006A41F211121040AE
:1041300050B90868006A9210104028B908680068F1
:1041400020F001000A68106000BF0020704770472F
:1041500010B5044620680069C0F34000D8B120685B
:10416000C068C0F34000B0B16FF002002168086180
:10417000012020762068806900F0030018B12046F5
:10418000FFF7E5FF05E0204600F0ADF8204600F01F
:10419000ABF80020207620680069C0F38000D8B119
:1041A0002068C068C0F38000B0B16FF004002168DF
:1041B0000861022020762068806900F4407018B100
:1041C0002046FFF7C4FF05E0204600F08CF82046AB
:1041D00000F08AF80020207620680069C0F3C00053
:1041E000D8B12068C068C0F3C000B0B16FF008005B
:1041F00021680861042020762068C06900F003006F
:1042000018B12046FFF7A3FF05E0204600F06BF849
:10421000204600F069F80020207620680069C0F38D
:104220000010D8B12068C068C0F30010B0B16FF0C2
:10423000100021680861082020762068C06900F419
:10424000407018B12046FFF782FF05E0204600F0DD
:104250004AF8204600F048F80020207620680069DF
:1042600000F0010058B12068C06800F0010030B1D2
:104270006FF0010021680861204600F037F82068DF
:104280000069C0F3C01058B12068C068C0F3C01006
:1042900030B16FF08000216808612046FFF7BCFE56
:1042A00020680069C0F3801058B12068C068C0F36E
:1042B000801030B16FF0400021680861204600F0A6
:1042C00031F920680069C0F3401058B12068C06817
:1042D000C0F3401030B16FF0200021680861204623
:1042E000FFF79BFE10BD70477047000010B50446F5
:1042F00006492068884201D1FEF7C6F80448844286
:1043000002D1204600F006F810BD00000034014044
:10431000E84D002010B5044663480088401C6249FF
:10432000088008460088112190FBF1F201FB120081
:1043300038B95D48008820B15C4800885C49088035
:104340001BE059480088252190FBF1F201FB120087
:1043500098B95548008880B153480088072190FBE0
:10436000F1F201FB120040B1514800884F49098821
:10437000884202D14FA003F0E3FDBB2051490880E1
:10438000084600885049097808444749098891FB44
:10439000F0F200FB121000283DD1434800880028AD
:1043A00039D04A48008890BB4948007878BB4948D2
:1043B000007860BB48480088B0F5A04F04DB464851
:1043C0000088B0F5A84F10DD43480088502803DB73
:1043D00041480088542808DD3F480088022804D05E
:1043E0003D480088B0F5007F00D110BD002036495F
:1043F00008702E48018839A003F0A2FD012034493D
:1044000008704FF431413D4809F0D6FA03E0FFE768
:104410000F202D49087040F2831039490880224846
:104420000088098890FBF1F201FB1200A0BB1E4836
:10443000008888B32548008870BB2548007858BBA1
:104440002448007840BB24480088B0F5A04F04DB26
:1044500021480088B0F5A84F10DD1F48008850287B
:1044600003DB1D480088542808DD1B48008802280B
:1044700004D019480088B0F5007F00D1B5E70B489B
:10448000018820A003F05CFD0120114908704FF461
:10449000F8511A4809F090FA2148C06880F00200EB
:1044A0001F49C86000BFA0E71404002008050020D1
:1044B000160400200A20204F532069732073746F64
:1044C00070200A00E4030020E803002050050020CB
:1044D0000B0500200E010020540500203D3D3D3D10
:1044E00047505253204359432074696D65205354FB
:1044F0004152543D25640D0A00000000E0040020F4
:10450000E60300203D3D3D3D475052532048656144
:1045100072742074696D65203D25640D0A000000E9
:104520000010014070477047F8B50446002500268A
:104530002068006800F001052068C06800F48076FB
:1045400025B11EB1E06B40F00100E0632068006817
:10455000C0F340052068406900F0010625B11EB196
:10456000E06B40F00400E06320680068C0F3800561
:1045700025B11EB1E06B40F00200E06320680068E6
:10458000C0F3C00525B11EB1E06B40F00800E06348
:1045900020680068C0F340152068C06800F020065D
:1045A0001DB116B1204603F0CFF920680068C0F3B2
:1045B000C0152068C06800F080061DB116B1204605
:1045C00003F004FB20680068C0F380152068C06811
:1045D00000F040061DB116B1204603F09DF9E06BD6
:1045E00070B100BF206800680090206840680090AB
:1045F00000BF00BF012084F839002046FFF793FF79
:10460000F8BD10B504460CB9012010BDA06900B179
:1046100000E000BF94F8390028B9002084F8380081
:10462000204600F025F8022084F839002068C06890
:1046300020F400502168C860204603F0E3F92068A8
:10464000006920F49040216808612068406920F0EA
:104650002A00216848612068C06840F40050216841
:10466000C8600020E063012084F839000020CCE716
:1046700010B586B004464649206888422AD100BF5A
:104680004448806940F48040424988610846806916
:1046900000F48040019000BF00BF48150290022046
:1046A00003900320059002A93B48FDF739FD4FF424
:1046B0008060029000200390049002A93648FDF724
:1046C0002FFD002206212520FDF7ADFF2520FDF757
:1046D0009DFF5BE031492068884229D100BF2D4809
:1046E000C06940F400302B49C8610846C06900F435
:1046F0000030019000BF00BF042002900220039010
:104700000320059002A92448FDF70AFD0820029025
:1047100000200390049002A91F48FDF701FD00222C
:1047200006212620FDF77FFF2620FDF76FFF2DE0F5
:104730001B492068884229D100BF1648C06940F44F
:1047400080201449C8610846C06900F480200190A7
:1047500000BF00BF081502900220039003200590BF
:1047600002A91048FDF7DCFC4FF400600290002025
:104770000390049002A90B48FDF7D2FC0022062109
:104780002720FDF750FF2720FDF740FF06B010BDA2
:104790000038014000100240000801400044004081
:1047A00000480040000C014030B50346002493F857
:1047B0003940012C01D0122C37D101B10AB90120A6
:1047C00030BD00BF93F83800012801D10220F7E77F
:1047D000012083F8380000BF99629A85DA850020AD
:1047E000D86393F83900122803D1322083F83900B6
:1047F00002E0222083F8390000BF002083F838004F
:1048000000BF1868C06840F480701D68E8601868D0
:10481000406940F001001D6868611868C06840F098
:1048200020001D68E8600020CAE70220C8E70000F9
:104830002DE9FC41064600270024A04600200190F7
:104840006148864242D161486149098810F8018077
:104850005F480088401C5E49088008460088FF28A1
:1048600001DD0020088000BF574800680068009004
:10487000554800684068009000BF00BFB8F1160FAF
:104880000DD101AA0121534800680BF063FC0546D5
:104890002DB1019818B14FF080504F49086000BF0A
:1048A000601C84B240F6FF70844203DB01204B4958
:1048B00008700AE04548464A128881180122424899
:1048C000FFF772FF0746002FEAD145E044488642D1
:1048D00042D144484449098810F801804248008880
:1048E000401C4149088008460088FF2801DD00205F
:1048F0000880B8F1160F0DD101AA042135480068CF
:104900000BF028FC05462DB1019818B14FF08050EE
:104910003149086000BF601C84B240F6FF708442D9
:1049200003DB01203149087015E000BF2C48006806
:10493000006800902A4800684068009000BF00BFEF
:104940002848294A1288811801222548FFF72CFFA0
:104950000746002FDFD100BF2548864231D12548C8
:104960002549098810F8018023480088401C224905
:104970000880084600881E2801DB0020088000BF50
:104980001B48006800680090194800684068009063
:1049900000BF00BF00BF601C84B240F6FF708442BD
:1049A00003DB0120154908700AE01248124A1288F8
:1049B000811801220E48FFF7F7FE0746002FEAD1C3
:1049C00000BFBDE8FC810000040800208809002029
:1049D0002C0100200005002004ED00E0F40300207D
:1049E00084080020880B00203C010020F6030020F2
:1049F00044080020880A002034010020F50300202C
:104A00002DE9F04704460D46164699464FF000083A
:104A100094F83980B8F1010F02D0B8F1220F65D1B6
:104A200005B116B90120BDE8F08700BF94F8380041
:104A3000012801D10220F6E7012084F8380000BFE8
:104A40000020E06394F83900222803D1322084F852
:104A5000390002E0122084F83900A684E68428E0B8
:104A6000E08C401EE084A068B0F5805F14D14B4616
:104A700000228021204603F0E1F808B10320D2E7AC
:104A80002F463888C0F3080021684860206908B9BB
:104A9000AD1C0EE06D1C0CE04B4600228021204630
:104AA00003F0CCF808B10320BDE715F8010B21682D
:104AB0004860E08C0028D3DC4B4600224021204691
:104AC00003F0BCF808B10320ADE794F839003228B0
:104AD00003D1222084F8390002E0012084F8390053
:104AE00000BF002084F8380000BF9CE702209AE74E
:104AF0007047000004E003A003F022FA00F016FD66
:104B0000F9E700000A2A2A2A2A2A68617264666183
:104B1000756C745F68616E646C65722A2A2A2A2A31
:104B20000A0000002DE9F05F06460F46904600247B
:104B3000B3463D46A1461CE068784FEA002A287833
:104B400050441FFA80FAAD1C2046611C8CB20E49FD
:104B500021F810A0B4F5806F07D100244FF48062D3
:104B6000584601F053F90BF5006B09F102001FFAEA
:104B700080F9C145E0D324B122460349584601F0EB
:104B800045F9BDE8F09F0000B47E002000B5B5B047
:104B90000020349034A80AF06FF95F4908600020C3
:104BA0003390012133A80AF06DF95C4908600020B8
:104BB0003290012132A80AF065F959490860594834
:104BC000006831900022012131A80AF099F9564974
:104BD00008604FF47A71544800680AF0A5F914226D
:104BE0005049091D2CA8FBF721FB00212CA80AF035
:104BF0006AF94E49086014224A49183127A8FBF780
:104C000015FB002127A80AF05EF949490860142223
:104C100044492C3122A8FBF709FB002122A80AF005
:104C200052F94449086014223E4940311DA8FBF75F
:104C3000FDFA00211DA80AF046F93F490860142238
:104C40003849543118A8FBF7F1FA002118A80AF0E6
:104C50003AF93A49086014223249683113A8FBF73F
:104C6000E5FA002113A80AF02EF93549086014224C
:104C70002C497C310EA8FBF7D9FA00210EA80AF0C6
:104C800022F93049086014222649903109A8FBF71F
:104C9000CDFA002109A80AF016F92B49086021492C
:104CA000A43103C9CDE90701002107A80AF0DBF808
:104CB000264908601B49AC3103C9CDE90501002133
:104CC00005A80AF0D0F8224908601649B43103C992
:104CD000CDE90301002103A80AF0C5F81D490860C9
:104CE0001049BC3103C9CDE90101002101A80AF036
:104CF000BAF8194908600BF0C7F9184908600BF0B9
:104D0000C3F9174908601748FFF7F6F90620FDF7C1
:104D10007DFC35B000BD0000F4040020F804002044
:104D2000FC040020BC0F0108F0040020C004002097
:104D3000C4040020C8040020CC040020D0040020BB
:104D4000D4040020D8040020DC040020E00400206B
:104D5000E4040020E8040020EC040020000500200A
:104D600004050020E84D002000B585B000BF424892
:104D7000806940F02000404988610846806900F061
:104D80002000009000BF00BF00BF0846806940F0CF
:104D9000100088610846806900F01000009000BF94
:104DA00000BF00BF0846806940F0040088610846E3
:104DB000806900F00400009000BF00BF00BF0846FB
:104DC000806940F0080088610846806900F00800AA
:104DD000009000BF00BF012203212848FDF748FBD7
:104DE000002294212548FDF743FB002249F61001DB
:104DF0002348FDF73DFB01224FF470412148FDF7A8
:104E000037FB97200190012002900220049001A915
:104E10001A48FDF785F949F610000190012002902B
:104E20000220049001A91648FDF77AF901200190AB
:104E3000154802900020039001A91248FDF770F96F
:104E40000220019000200290039001A90D48FDF777
:104E500067F94FF470400190012002900220049005
:104E600001A90848FDF75CF9002205210620FDF79D
:104E7000DAFB05B000BD0000001002400010014048
:104E800000080140000C0140000011101CB51F4833
:104E90001F4908604FF0FF30486000211C488160C6
:104EA000FEF7ACFC08B1FCF735FF01211848FEF70E
:104EB000E1FB43F2F221884227D001208DF8040063
:104EC00000208DF805008DF80600012201A9104888
:104ED000FEF7A0FD08B1FCF71DFF01208DF80000D2
:104EE0008DF801008DF8020000208DF803000122EA
:104EF00069460748FEF712FD08B1FCF70BFF43F2C5
:104F0000F22201210248FEF7C1FB1CBD002800402F
:104F10007409002010B50E480E4908604FF48270E5
:104F2000486000210B488160C160016141614FF41C
:104F3000007181613821C161002101624162816299
:104F40000A21C162FEF7F8FD08B1FCF7E3FE10BDCF
:104F500000300140C408002010B50E480E4908601A
:104F60004FF48270486000210B488160C16001618C
:104F700041614FF4007181610021C16101624162B0
:104F800081620A21C162FEF7D7FD08B1FCF7C2FEBB
:104F900010BD0000003C00401C0900201CB50E485C
:104FA0000E49086048F69F40486000210B48816028
:104FB00040F2CF71C160FFF762F808B1FCF7AAFEBA
:104FC00000200090019069460448FFF727F808B1D7
:104FD000FCF7A0FE1CBD000000100040E84D0020C2
:104FE00010B50B480B4908604FF41650486000217B
:104FF00008488160C16001610C214161002181612B
:10500000C161FFF7FEFA08B1FCF784FE10BD000095
:10501000003801400408002010B50B480B49086017
:105020004FF416504860002108488160C16001615A
:105030000C21416100218161C161FFF7E2FA08B1F1
:10504000FCF768FE10BD000000440040440800204A
:1050500010B50B480B4908604FF41640486000211A
:1050600008488160C16001610C21416100218161BA
:10507000C161FFF7C6FA08B1FCF74CFE10BD000095
:1050800000480040840800202DE9F04F8BB0002438
:10509000002009900A908146D348D0F800B0D34848
:1050A00000680890D24800680790D248D0F800A065
:1050B00000200490059006900390CF4800780128C6
:1050C00002D14FF0020901E04FF00109B9F1010FDF
:1050D0007DD10720FBF7E8FC8DF824000820FBF7C2
:1050E000E3FC8DF825009DF825404FF47F4000EA51
:1050F00004209DF82410084484B2C04804800F2086
:10510000FBF7D2FC8DF824001020FBF7CDFC8DF8C6
:1051100025009DF825404FF47F4000EA04209DF8CB
:105120002410084484B23C2C04DDB4F5167F01DA67
:10513000B34804801120FBF7B7FC8DF8240012203F
:10514000FBF7B2FC8DF825009DF825404FF47F4019
:1051500000EA04209DF82410084484B2B42C04DD35
:10516000B4F5616F01DAA74804801320FBF79CFCBB
:105170008DF824001420FBF797FC8DF825009DF88E
:1051800025404FF47F4000EA04209DF82410084495
:1051900084B22046FBF78FFA074600229A4BFBF7B2
:1051A00005FA0546FBF7D4FA03909849039808607E
:1051B0001520FBF779FC8DF824001620FBF774FC12
:1051C0008DF825009DF825404FF47F4000E048E031
:1051D00000EA04209DF82410084484B23C2C04DD2D
:1051E000B4F5616F01DA8A4804801720FBF75CFC94
:1051F0008DF824001820FBF757FC8DF825009DF84A
:1052000025404FF47F4000EA04209DF82410084414
:1052100084B23C2C04DDB4F5616F01DA7D48048072
:10522000042209217C4800F0D8FB0D20FBF73CFC50
:105230008DF824000E20FBF737FC8DF825009DF833
:1052400025404FF47F4000EA04209DF824100844D4
:1052500084B2724804801B20FBF726FC704908705A
:10526000BFE0B9F1020FFBD164480488E0B28DF8C9
:105270002400200A8DF825004CB19DF82400072158
:10528000FBF747FC9DF825000821FBF742FC5C4832
:105290000488E0B28DF82400200A8DF825009DF8DE
:1052A00024000F21FBF735FC9DF825001021FBF7AA
:1052B00030FC54480488E0B28DF82400200A8DF8B0
:1052C00025009DF824001121FBF723FC9DF8250003
:1052D0001221FBF71EFC53494C480068FAF7DDFF2A
:1052E0000546FBF7F5F984B2E0B28DF82400200AF8
:1052F0008DF825009DF824001321FBF70AFC9DF88A
:1053000025001421FBF705FC41480488E0B28DF824
:105310002400200A8DF825009DF824001521FBF7B4
:10532000F8FB9DF825001621FBF7F3FB39480488AC
:10533000E0B28DF82400200A8DF825009DF82400A5
:105340001721FBF7E6FB9DF825001821FBF7E1FB91
:1053500004220921304800F01EFC30480488E0B2E5
:105360008DF82400200A8DF825009DF824000D21D9
:10537000FBF7CFFB9DF825000E21FBF7CAFB0020B1
:1053800027490870C82126480078FBF7C2FB264849
:10539000D0F800B0254800680890254800680790BC
:1053A0002448D0F800A0C920CDE900A0594604A89F
:1053B000DDE9073209F020FD0B48D0F800B00B48BA
:1053C000006808900A48006807900A48D0F800A0D2
:1053D000D520CDE900A0594604A8DDE9073209F03F
:1053E0000BFD0BB0BDE8F08F7C0300208003002094
:1053F00084030020880300202A01002028010020C7
:10540000D6030020D403002000002440DC03002049
:10541000D0030020D803002064030020680300208C
:1054200054010020000020416C0300207003002084
:10543000740300207803002002A002F081FD00F038
:1054400075F800000A2A2A2A2A2A4D656D4D616ED8
:105450006167655F48616E646C65722A2A2A2A2A30
:105460000A00000002A002F06BFD00F05FF80000EF
:105470000A2A2A2A2A2A4E4D495F48616E646C65C1
:10548000722A2A2A2A2A0A000648006840F01000D8
:10549000044908600448006940F0100002490861AE
:1054A00070470000100801400010014001280CD195
:1054B0000E49096841F010010C4A11600C49096954
:1054C00041F010010A4A11610FE002280DD108498C
:1054D000496941F01001064A51610449091F0968F0
:1054E00041F01001014A121F116070471408014079
:1054F0000010014002480068C0F30220704700001D
:105500000CED00E010B5002807DA0A07140E054A72
:1055100000F00F031B1FD45403E00A07130E024AC6
:10552000135410BD18ED00E000E400E000BF00BF20
:1055300000BFBFF34F8F00BF00BF00BF0948006826
:1055400000F4E06008490843001D0649086000BFF8
:1055500000BF00BFBFF34F8F00BF00BF00BF00BF41
:1055600000BFFDE70CED00E00000FA0500BF00BF42
:1055700000BFBFF34F8F00BF00BF00BF09480068E6
:1055800000F4E06008490843001D0649086000BFB8
:1055900000BF00BFBFF34F8F00BF00BF00BF00BF01
:1055A00000BFFDE70CED00E00000FA0570B590B01B
:1055B000002440216846FAF752FE002500263248B2
:1055C0000078012803D030480078022802D100205A
:1055D00010B070BD02202C4908700AE0761C2B48E0
:1055E000864206D32AA002F0ABFCFBF74FFC00205A
:1055F000EEE701212F48FCF733FF0128EED0684683
:10560000FBF7FAFC0446402C35DC002C33DD9DF81A
:1056100000002949087001252BE01DF805002749E5
:10562000274A12888854012D13DD25480088254912
:10563000098888420DD123480088401C21490880F0
:105640000846008841F28831884202DB00201D496B
:1056500008801B480088401C1949088008460088BB
:1056600041F28831884202DB002015490880681C1D
:10567000C5B2A542D1DB0120FBF72BFE0020024979
:1056800008702046A4E7000018040020FFFF3F0038
:105690000A2A2A2A2A2A322043435F4952515F525A
:1056A0004541442829203D3D2031202A2A2A2A2A02
:1056B0002A0A0000000C014081040020B2230020CF
:1056C0007C0400207E040020014600BF080900EB96
:1056D0008000420001F00F001044C0B27047014644
:1056E000002203E0521CA1F10A00C1B20A29F9DA32
:1056F000100741EA106070472DE9F04706468846DA
:10570000002700240025A146F77B747BB57B00BFF2
:1057100040E0012C0BD0032C09D0052C07D0072C1E
:1057200005D0082C03D00A2C01D00C2C0CD11F2D35
:1057300001D26D1C2CE00C2C02D0641C012527E04A
:10574000012401257F1C23E0042C05D0062C03D066
:10575000092C01D00B2C06D11E2D01D26D1C17E097
:10576000641C012514E0022C12D11C2D01D26D1CE9
:105770000EE01C2D08D1B8B200F053F808B16D1C32
:1057800006E0641C012503E01D2D01D1641C0125E8
:1057900009F10109C145BCD3F7737473B573EAB25B
:1057A000E1B2384600F080F83073BDE8F08770B59C
:1057B00004460025FCF762FE054607E0FCF75EFEA6
:1057C000401BB0F57A7F01D9032070BD2068406886
:1057D00000F020000028F1D02068406840F0100060
:1057E000216848600020F0E770B504460025206875
:1057F000406820F0100021684860FCF73FFE054635
:1058000007E0FCF73BFE401BB0F57A7F01D903208F
:1058100070BD2068406800F020000028F1D0002012
:10582000F6E70146CA1701EB92729210A1EB8202D1
:105830000AB100207047642091FBF0F200FB1210C7
:1058400008B10120F6E74FF4C87091FBF0F200FBBD
:10585000121008B90120EDE70020EBE70146002215
:1058600000230868006A82B20868406A83B243EA8B
:105870000240704730B5014600220023002400207A
:105880000D68AD69AAB20D68ED69ACB20D68AD697D
:10589000ABB29A4205D00D68ED6963F31F45284607
:1058A00001E044EA024030BDF0B504460B46002159
:1058B000002504F5FA61032B1BDAC3EBC30000EBF0
:1058C0000310092690FBF6F01044001D4618481EF0
:1058D00006EB90066427B0FBF7F0361A481EBF00AF
:1058E000B0FBF7F030440726B0FBF6F706FB1705D0
:1058F0001AE0C3EBC30000EB0310092690FBF6F09F
:105900001044001D084400EB91006426B1FBF6F63C
:10591000801B4FF4C876B1FBF6F63044801E072694
:10592000B0FBF6F706FB1705E8B2F0BD70B504460C
:105930000D4600262046FFF73AFF08B101260AE08F
:10594000280C21680862A8B2216848622046FFF747
:105950004BFF00B10126304670BD70B504460D46C0
:1059600000262046FFF723FF08B101260AE0280C95
:1059700021688861A8B22168C8612046FFF734FF1A
:1059800000B10126304670BD2DE9F04104460D46B8
:1059900016461F46B84672B64046FBF7AFF8384683
:1059A00000F073F94046FFF781FD032000F002FA92
:1059B000C5F3072000F0FEF9E8B200F0FBF905E0BE
:1059C00000F05EF92070641C701E86B2002EF7D1C4
:1059D000FFF75AFD62B6BDE8F0812DE9F0410746B8
:1059E0000C4615466019A0F101086019A0F50046A3
:1059F000B8F5004F06DA01232A4621463846FFF75C
:105A0000C3FF1EE0B4F5004F11D2B8F5004F0EDB16
:105A1000A81B82B2012321463846FFF7B5FFB2B278
:105A20007919881B02230021FFF7AEFF09E0B4F5C6
:105A3000004F06D3A4F5004102232A463846FFF75B
:105A4000A3FFBDE8F0812DE9F05F80460E461446C5
:105A50009B464FF000090027BA46002572B606F0B3
:105A60003F0ACAF140052046E11704EB91614FEA75
:105A7000A119E11704EB91618911A4EB8117BAF127
:105A8000000F21D1B9F1000F06D1BAB25B46314601
:105A9000404600F0B6F87BE008E05B464022314625
:105AA000404600F0AEF8403608F14008B9F1000079
:105AB000A9F10109F1D1002F6AD0BAB25B46314693
:105AC000404600F09EF863E0B9F1000F33D1AC42DC
:105AD00001D8002503E0AC4201D9601B84B2204606
